{
  "_format": "hh-sol-artifact-1",
  "contractName": "CricNFTMint",
  "sourceName": "contracts/CricNFTMint.sol",
  "abi": [
    {
      "inputs": [
        {
          "internalType": "address",
          "name": "_cricnftTeamAgreement",
          "type": "address"
        },
        {
          "internalType": "address",
          "name": "_getAPIData",
          "type": "address"
        }
      ],
      "stateMutability": "nonpayable",
      "type": "constructor"
    },
    {
      "anonymous": false,
      "inputs": [
        {
          "indexed": true,
          "internalType": "address",
          "name": "account",
          "type": "address"
        },
        {
          "indexed": true,
          "internalType": "address",
          "name": "operator",
          "type": "address"
        },
        {
          "indexed": false,
          "internalType": "bool",
          "name": "approved",
          "type": "bool"
        }
      ],
      "name": "ApprovalForAll",
      "type": "event"
    },
    {
      "anonymous": false,
      "inputs": [
        {
          "indexed": true,
          "internalType": "address",
          "name": "user",
          "type": "address"
        },
        {
          "indexed": true,
          "internalType": "uint256",
          "name": "_tokenId",
          "type": "uint256"
        },
        {
          "indexed": true,
          "internalType": "uint256",
          "name": "value",
          "type": "uint256"
        }
      ],
      "name": "Claimed",
      "type": "event"
    },
    {
      "anonymous": false,
      "inputs": [
        {
          "indexed": true,
          "internalType": "address",
          "name": "user",
          "type": "address"
        },
        {
          "indexed": true,
          "internalType": "uint256",
          "name": "tokenId",
          "type": "uint256"
        },
        {
          "indexed": true,
          "internalType": "uint256",
          "name": "quantity",
          "type": "uint256"
        }
      ],
      "name": "Minted",
      "type": "event"
    },
    {
      "anonymous": false,
      "inputs": [
        {
          "indexed": false,
          "internalType": "address",
          "name": "newowner",
          "type": "address"
        }
      ],
      "name": "NewOwner",
      "type": "event"
    },
    {
      "anonymous": false,
      "inputs": [
        {
          "indexed": true,
          "internalType": "bytes32",
          "name": "role",
          "type": "bytes32"
        },
        {
          "indexed": true,
          "internalType": "bytes32",
          "name": "previousAdminRole",
          "type": "bytes32"
        },
        {
          "indexed": true,
          "internalType": "bytes32",
          "name": "newAdminRole",
          "type": "bytes32"
        }
      ],
      "name": "RoleAdminChanged",
      "type": "event"
    },
    {
      "anonymous": false,
      "inputs": [
        {
          "indexed": true,
          "internalType": "bytes32",
          "name": "role",
          "type": "bytes32"
        },
        {
          "indexed": true,
          "internalType": "address",
          "name": "account",
          "type": "address"
        },
        {
          "indexed": true,
          "internalType": "address",
          "name": "sender",
          "type": "address"
        }
      ],
      "name": "RoleGranted",
      "type": "event"
    },
    {
      "anonymous": false,
      "inputs": [
        {
          "indexed": true,
          "internalType": "bytes32",
          "name": "role",
          "type": "bytes32"
        },
        {
          "indexed": true,
          "internalType": "address",
          "name": "account",
          "type": "address"
        },
        {
          "indexed": true,
          "internalType": "address",
          "name": "sender",
          "type": "address"
        }
      ],
      "name": "RoleRevoked",
      "type": "event"
    },
    {
      "anonymous": false,
      "inputs": [
        {
          "indexed": true,
          "internalType": "uint256",
          "name": "id",
          "type": "uint256"
        },
        {
          "indexed": false,
          "internalType": "uint256",
          "name": "supply",
          "type": "uint256"
        },
        {
          "indexed": true,
          "internalType": "uint256",
          "name": "rate",
          "type": "uint256"
        },
        {
          "indexed": true,
          "internalType": "string",
          "name": "imageCID",
          "type": "string"
        },
        {
          "indexed": false,
          "internalType": "string",
          "name": "cid",
          "type": "string"
        }
      ],
      "name": "TokenAdded",
      "type": "event"
    },
    {
      "anonymous": false,
      "inputs": [
        {
          "indexed": true,
          "internalType": "address",
          "name": "operator",
          "type": "address"
        },
        {
          "indexed": true,
          "internalType": "address",
          "name": "from",
          "type": "address"
        },
        {
          "indexed": true,
          "internalType": "address",
          "name": "to",
          "type": "address"
        },
        {
          "indexed": false,
          "internalType": "uint256[]",
          "name": "ids",
          "type": "uint256[]"
        },
        {
          "indexed": false,
          "internalType": "uint256[]",
          "name": "values",
          "type": "uint256[]"
        }
      ],
      "name": "TransferBatch",
      "type": "event"
    },
    {
      "anonymous": false,
      "inputs": [
        {
          "indexed": true,
          "internalType": "address",
          "name": "operator",
          "type": "address"
        },
        {
          "indexed": true,
          "internalType": "address",
          "name": "from",
          "type": "address"
        },
        {
          "indexed": true,
          "internalType": "address",
          "name": "to",
          "type": "address"
        },
        {
          "indexed": false,
          "internalType": "uint256",
          "name": "id",
          "type": "uint256"
        },
        {
          "indexed": false,
          "internalType": "uint256",
          "name": "value",
          "type": "uint256"
        }
      ],
      "name": "TransferSingle",
      "type": "event"
    },
    {
      "anonymous": false,
      "inputs": [
        {
          "indexed": false,
          "internalType": "string",
          "name": "value",
          "type": "string"
        },
        {
          "indexed": true,
          "internalType": "uint256",
          "name": "id",
          "type": "uint256"
        }
      ],
      "name": "URI",
      "type": "event"
    },
    {
      "anonymous": false,
      "inputs": [
        {
          "indexed": true,
          "internalType": "address",
          "name": "teamOwner",
          "type": "address"
        },
        {
          "indexed": false,
          "internalType": "uint256",
          "name": "tokenId",
          "type": "uint256"
        },
        {
          "indexed": false,
          "internalType": "uint256",
          "name": "amount",
          "type": "uint256"
        }
      ],
      "name": "Withdraw",
      "type": "event"
    },
    {
      "inputs": [],
      "name": "DEFAULT_ADMIN_ROLE",
      "outputs": [
        {
          "internalType": "bytes32",
          "name": "",
          "type": "bytes32"
        }
      ],
      "stateMutability": "view",
      "type": "function"
    },
    {
      "inputs": [
        {
          "internalType": "uint256",
          "name": "_id",
          "type": "uint256"
        },
        {
          "internalType": "string",
          "name": "_imageCID",
          "type": "string"
        },
        {
          "internalType": "string",
          "name": "_cid",
          "type": "string"
        }
      ],
      "name": "addToken",
      "outputs": [],
      "stateMutability": "nonpayable",
      "type": "function"
    },
    {
      "inputs": [
        {
          "internalType": "address",
          "name": "account",
          "type": "address"
        },
        {
          "internalType": "uint256",
          "name": "id",
          "type": "uint256"
        }
      ],
      "name": "balanceOf",
      "outputs": [
        {
          "internalType": "uint256",
          "name": "",
          "type": "uint256"
        }
      ],
      "stateMutability": "view",
      "type": "function"
    },
    {
      "inputs": [
        {
          "internalType": "address[]",
          "name": "accounts",
          "type": "address[]"
        },
        {
          "internalType": "uint256[]",
          "name": "ids",
          "type": "uint256[]"
        }
      ],
      "name": "balanceOfBatch",
      "outputs": [
        {
          "internalType": "uint256[]",
          "name": "",
          "type": "uint256[]"
        }
      ],
      "stateMutability": "view",
      "type": "function"
    },
    {
      "inputs": [
        {
          "internalType": "address",
          "name": "_newowner",
          "type": "address"
        }
      ],
      "name": "changeOwnership",
      "outputs": [],
      "stateMutability": "nonpayable",
      "type": "function"
    },
    {
      "inputs": [
        {
          "internalType": "uint256",
          "name": "_seasonId",
          "type": "uint256"
        },
        {
          "internalType": "uint256",
          "name": "_tokenId",
          "type": "uint256"
        }
      ],
      "name": "claimShare",
      "outputs": [],
      "stateMutability": "nonpayable",
      "type": "function"
    },
    {
      "inputs": [
        {
          "internalType": "bytes32",
          "name": "role",
          "type": "bytes32"
        }
      ],
      "name": "getRoleAdmin",
      "outputs": [
        {
          "internalType": "bytes32",
          "name": "",
          "type": "bytes32"
        }
      ],
      "stateMutability": "view",
      "type": "function"
    },
    {
      "inputs": [
        {
          "internalType": "bytes32",
          "name": "role",
          "type": "bytes32"
        },
        {
          "internalType": "address",
          "name": "account",
          "type": "address"
        }
      ],
      "name": "grantRole",
      "outputs": [],
      "stateMutability": "nonpayable",
      "type": "function"
    },
    {
      "inputs": [
        {
          "internalType": "bytes32",
          "name": "role",
          "type": "bytes32"
        },
        {
          "internalType": "address",
          "name": "account",
          "type": "address"
        }
      ],
      "name": "hasRole",
      "outputs": [
        {
          "internalType": "bool",
          "name": "",
          "type": "bool"
        }
      ],
      "stateMutability": "view",
      "type": "function"
    },
    {
      "inputs": [
        {
          "internalType": "address",
          "name": "account",
          "type": "address"
        },
        {
          "internalType": "address",
          "name": "operator",
          "type": "address"
        }
      ],
      "name": "isApprovedForAll",
      "outputs": [
        {
          "internalType": "bool",
          "name": "",
          "type": "bool"
        }
      ],
      "stateMutability": "view",
      "type": "function"
    },
    {
      "inputs": [
        {
          "internalType": "uint256",
          "name": "id",
          "type": "uint256"
        },
        {
          "internalType": "uint256",
          "name": "amount",
          "type": "uint256"
        }
      ],
      "name": "mint",
      "outputs": [],
      "stateMutability": "payable",
      "type": "function"
    },
    {
      "inputs": [
        {
          "internalType": "uint256",
          "name": "",
          "type": "uint256"
        }
      ],
      "name": "minted",
      "outputs": [
        {
          "internalType": "uint256",
          "name": "",
          "type": "uint256"
        }
      ],
      "stateMutability": "view",
      "type": "function"
    },
    {
      "inputs": [],
      "name": "owner",
      "outputs": [
        {
          "internalType": "address",
          "name": "",
          "type": "address"
        }
      ],
      "stateMutability": "view",
      "type": "function"
    },
    {
      "inputs": [
        {
          "internalType": "uint256",
          "name": "_tokenId",
          "type": "uint256"
        }
      ],
      "name": "querySupplyLeftRate",
      "outputs": [
        {
          "internalType": "uint256",
          "name": "_supply",
          "type": "uint256"
        },
        {
          "internalType": "uint256",
          "name": "_rate",
          "type": "uint256"
        }
      ],
      "stateMutability": "view",
      "type": "function"
    },
    {
      "inputs": [
        {
          "internalType": "uint256",
          "name": "",
          "type": "uint256"
        }
      ],
      "name": "rates",
      "outputs": [
        {
          "internalType": "uint256",
          "name": "",
          "type": "uint256"
        }
      ],
      "stateMutability": "view",
      "type": "function"
    },
    {
      "inputs": [
        {
          "internalType": "bytes32",
          "name": "role",
          "type": "bytes32"
        },
        {
          "internalType": "address",
          "name": "account",
          "type": "address"
        }
      ],
      "name": "renounceRole",
      "outputs": [],
      "stateMutability": "nonpayable",
      "type": "function"
    },
    {
      "inputs": [
        {
          "internalType": "bytes32",
          "name": "role",
          "type": "bytes32"
        },
        {
          "internalType": "address",
          "name": "account",
          "type": "address"
        }
      ],
      "name": "revokeRole",
      "outputs": [],
      "stateMutability": "nonpayable",
      "type": "function"
    },
    {
      "inputs": [
        {
          "internalType": "address",
          "name": "from",
          "type": "address"
        },
        {
          "internalType": "address",
          "name": "to",
          "type": "address"
        },
        {
          "internalType": "uint256[]",
          "name": "ids",
          "type": "uint256[]"
        },
        {
          "internalType": "uint256[]",
          "name": "amounts",
          "type": "uint256[]"
        },
        {
          "internalType": "bytes",
          "name": "data",
          "type": "bytes"
        }
      ],
      "name": "safeBatchTransferFrom",
      "outputs": [],
      "stateMutability": "nonpayable",
      "type": "function"
    },
    {
      "inputs": [
        {
          "internalType": "address",
          "name": "from",
          "type": "address"
        },
        {
          "internalType": "address",
          "name": "to",
          "type": "address"
        },
        {
          "internalType": "uint256",
          "name": "id",
          "type": "uint256"
        },
        {
          "internalType": "uint256",
          "name": "amount",
          "type": "uint256"
        },
        {
          "internalType": "bytes",
          "name": "data",
          "type": "bytes"
        }
      ],
      "name": "safeTransferFrom",
      "outputs": [],
      "stateMutability": "nonpayable",
      "type": "function"
    },
    {
      "inputs": [
        {
          "internalType": "address",
          "name": "operator",
          "type": "address"
        },
        {
          "internalType": "bool",
          "name": "approved",
          "type": "bool"
        }
      ],
      "name": "setApprovalForAll",
      "outputs": [],
      "stateMutability": "nonpayable",
      "type": "function"
    },
    {
      "inputs": [
        {
          "internalType": "uint256",
          "name": "",
          "type": "uint256"
        }
      ],
      "name": "supplies",
      "outputs": [
        {
          "internalType": "uint256",
          "name": "",
          "type": "uint256"
        }
      ],
      "stateMutability": "view",
      "type": "function"
    },
    {
      "inputs": [
        {
          "internalType": "bytes4",
          "name": "interfaceId",
          "type": "bytes4"
        }
      ],
      "name": "supportsInterface",
      "outputs": [
        {
          "internalType": "bool",
          "name": "",
          "type": "bool"
        }
      ],
      "stateMutability": "view",
      "type": "function"
    },
    {
      "inputs": [
        {
          "internalType": "uint256",
          "name": "",
          "type": "uint256"
        }
      ],
      "name": "tokens",
      "outputs": [
        {
          "internalType": "uint256",
          "name": "",
          "type": "uint256"
        }
      ],
      "stateMutability": "view",
      "type": "function"
    },
    {
      "inputs": [
        {
          "internalType": "uint256",
          "name": "_tokenId",
          "type": "uint256"
        }
      ],
      "name": "uri",
      "outputs": [
        {
          "internalType": "string",
          "name": "",
          "type": "string"
        }
      ],
      "stateMutability": "view",
      "type": "function"
    },
    {
      "inputs": [
        {
          "internalType": "uint256",
          "name": "_tokenId",
          "type": "uint256"
        }
      ],
      "name": "withdraw",
      "outputs": [],
      "stateMutability": "nonpayable",
      "type": "function"
    }
  ],
  "bytecode": "0x60806040523480156200001157600080fd5b5060405162005b7838038062005b788339818101604052810190620000379190620003a1565b60405180606001604052806027815260200162005b516027913962000062816200014360201b60201c565b5033600860006101000a81548173ffffffffffffffffffffffffffffffffffffffff021916908373ffffffffffffffffffffffffffffffffffffffff16021790555081600e60006101000a81548173ffffffffffffffffffffffffffffffffffffffff021916908373ffffffffffffffffffffffffffffffffffffffff16021790555080600f60006101000a81548173ffffffffffffffffffffffffffffffffffffffff021916908373ffffffffffffffffffffffffffffffffffffffff1602179055506200013b6000801b336200015f60201b60201c565b5050620004a0565b80600290805190602001906200015b929190620002da565b5050565b6200017182826200017560201b60201c565b5050565b6200018782826200026760201b60201c565b620002635760016003600084815260200190815260200160002060000160008373ffffffffffffffffffffffffffffffffffffffff1673ffffffffffffffffffffffffffffffffffffffff16815260200190815260200160002060006101000a81548160ff02191690831515021790555062000208620002d260201b60201c565b73ffffffffffffffffffffffffffffffffffffffff168173ffffffffffffffffffffffffffffffffffffffff16837f2f8788117e7eff1d82e926ec794901d17c78024a50270940304540a733656f0d60405160405180910390a45b5050565b60006003600084815260200190815260200160002060000160008373ffffffffffffffffffffffffffffffffffffffff1673ffffffffffffffffffffffffffffffffffffffff16815260200190815260200160002060009054906101000a900460ff16905092915050565b600033905090565b828054620002e8906200041c565b90600052602060002090601f0160209004810192826200030c576000855562000358565b82601f106200032757805160ff191683800117855562000358565b8280016001018555821562000358579182015b82811115620003575782518255916020019190600101906200033a565b5b5090506200036791906200036b565b5090565b5b80821115620003865760008160009055506001016200036c565b5090565b6000815190506200039b8162000486565b92915050565b60008060408385031215620003bb57620003ba62000481565b5b6000620003cb858286016200038a565b9250506020620003de858286016200038a565b9150509250929050565b6000620003f582620003fc565b9050919050565b600073ffffffffffffffffffffffffffffffffffffffff82169050919050565b600060028204905060018216806200043557607f821691505b602082108114156200044c576200044b62000452565b5b50919050565b7f4e487b7100000000000000000000000000000000000000000000000000000000600052602260045260246000fd5b600080fd5b6200049181620003e8565b81146200049d57600080fd5b50565b6156a180620004b06000396000f3fe6080604052600436106101655760003560e01c80634e1273f4116100d1578063a217fddf1161008a578063d714f5b311610064578063d714f5b314610572578063dd418ae2146105b0578063e985e9c5146105ed578063f242432a1461062a57610165565b8063a217fddf146104f5578063a22cb46514610520578063d547741f1461054957610165565b80634e1273f4146103ad5780634f64b2be146103ea5780635843b237146104275780637dc0bf3f146104505780638da5cb5b1461048d57806391d14854146104b857610165565b80632af4c31e116101235780632af4c31e146102b75780632e1a7d4d146102e05780632eb2c2d6146103095780632f2ff15d1461033257806336568abe1461035b5780633c168afe1461038457610165565b8062fdd58e1461016a57806301ffc9a7146101a75780630e89341c146101e45780631b2ef1ca14610221578063248a9ca31461023d57806326f1a1fd1461027a575b600080fd5b34801561017657600080fd5b50610191600480360381019061018c9190613925565b610653565b60405161019e9190614836565b60405180910390f35b3480156101b357600080fd5b506101ce60048036038101906101c99190613a77565b61071c565b6040516101db919061447e565b60405180910390f35b3480156101f057600080fd5b5061020b60048036038101906102069190613ad1565b61072e565b60405161021891906144b4565b60405180910390f35b61023b60048036038101906102369190613c62565b6107f8565b005b34801561024957600080fd5b50610264600480360381019061025f9190613a0a565b610b9f565b6040516102719190614499565b60405180910390f35b34801561028657600080fd5b506102a1600480360381019061029c9190613ad1565b610bbf565b6040516102ae9190614836565b60405180910390f35b3480156102c357600080fd5b506102de60048036038101906102d99190613712565b610be3565b005b3480156102ec57600080fd5b5061030760048036038101906103029190613ad1565b610c74565b005b34801561031557600080fd5b50610330600480360381019061032b919061377f565b610f74565b005b34801561033e57600080fd5b5061035960048036038101906103549190613a37565b611015565b005b34801561036757600080fd5b50610382600480360381019061037d9190613a37565b61103e565b005b34801561039057600080fd5b506103ab60048036038101906103a69190613c62565b6110c1565b005b3480156103b957600080fd5b506103d460048036038101906103cf9190613965565b611706565b6040516103e19190614425565b60405180910390f35b3480156103f657600080fd5b50610411600480360381019061040c9190613ad1565b61181f565b60405161041e9190614836565b60405180910390f35b34801561043357600080fd5b5061044e60048036038101906104499190613bcd565b611843565b005b34801561045c57600080fd5b5061047760048036038101906104729190613ad1565b611c79565b6040516104849190614836565b60405180910390f35b34801561049957600080fd5b506104a2611c9d565b6040516104af919061431f565b60405180910390f35b3480156104c457600080fd5b506104df60048036038101906104da9190613a37565b611cc3565b6040516104ec919061447e565b60405180910390f35b34801561050157600080fd5b5061050a611d2e565b6040516105179190614499565b60405180910390f35b34801561052c57600080fd5b50610547600480360381019061054291906138e5565b611d35565b005b34801561055557600080fd5b50610570600480360381019061056b9190613a37565b611eb6565b005b34801561057e57600080fd5b5061059960048036038101906105949190613ad1565b611edf565b6040516105a7929190614883565b60405180910390f35b3480156105bc57600080fd5b506105d760048036038101906105d29190613ad1565b612007565b6040516105e49190614836565b60405180910390f35b3480156105f957600080fd5b50610614600480360381019061060f919061373f565b61202b565b604051610621919061447e565b60405180910390f35b34801561063657600080fd5b50610651600480360381019061064c919061384e565b6120bf565b005b60008073ffffffffffffffffffffffffffffffffffffffff168373ffffffffffffffffffffffffffffffffffffffff1614156106c4576040517f08c379a00000000000000000000000000000000000000000000000000000000081526004016106bb90614576565b60405180910390fd5b60008083815260200190815260200160002060008473ffffffffffffffffffffffffffffffffffffffff1673ffffffffffffffffffffffffffffffffffffffff16815260200190815260200160002054905092915050565b600061072782612160565b9050919050565b6060600060096000848152602001908152602001600020805461075090614be0565b80601f016020809104026020016040519081016040528092919081815260200182805461077c90614be0565b80156107c95780601f1061079e576101008083540402835291602001916107c9565b820191906000526020600020905b8154815290600101906020018083116107ac57829003601f168201915b50505050509050806040516020016107e191906142ae565b604051602081830303815290604052915050919050565b600580549050821115610840576040517f08c379a000000000000000000000000000000000000000000000000000000000815260040161083790614616565b60405180910390fd5b60008211610883576040517f08c379a000000000000000000000000000000000000000000000000000000000815260040161087a90614616565b60405180910390fd5b60006001836108929190614ac2565b9050600581815481106108a8576108a7614d19565b5b906000526020600020015482600683815481106108c8576108c7614d19565b5b90600052602060002001546108dd91906149e1565b111561091e576040517f08c379a000000000000000000000000000000000000000000000000000000000815260040161091590614556565b60405180910390fd5b6007818154811061093257610931614d19565b5b9060005260206000200154826109489190614a68565b34101561098a576040517f08c379a0000000000000000000000000000000000000000000000000000000008152600401610981906146f6565b60405180910390fd5b601a61099f6109993386610653565b846121da565b106109df576040517f08c379a00000000000000000000000000000000000000000000000000000000081526004016109d690614536565b60405180910390fd5b600034905060006109f18260646121f0565b905080600c6000600860009054906101000a900473ffffffffffffffffffffffffffffffffffffffff1673ffffffffffffffffffffffffffffffffffffffff1673ffffffffffffffffffffffffffffffffffffffff1681526020019081526020016000206000828254610a6491906149e1565b925050819055506000600a600087815260200190815260200160002060009054906101000a900473ffffffffffffffffffffffffffffffffffffffff169050610aad8383612206565b600c60008373ffffffffffffffffffffffffffffffffffffffff1673ffffffffffffffffffffffffffffffffffffffff1681526020019081526020016000206000828254610afb91906149e1565b92505081905550610b1d3387876040518060200160405280600081525061221c565b8460068581548110610b3257610b31614d19565b5b906000526020600020016000828254610b4b91906149e1565b9250508190555084863373ffffffffffffffffffffffffffffffffffffffff167f25b428dfde728ccfaddad7e29e4ac23c24ed7fd1a6e3e3f91894a9a073f5dfff60405160405180910390a4505050505050565b600060036000838152602001908152602001600020600101549050919050565b60058181548110610bcf57600080fd5b906000526020600020016000915090505481565b6000801b610bf881610bf36123b2565b6123ba565b81600860006101000a81548173ffffffffffffffffffffffffffffffffffffffff021916908373ffffffffffffffffffffffffffffffffffffffff1602179055507f3edd90e7770f06fafde38004653b33870066c33bfc923ff6102acd601f85dfbc82604051610c68919061431f565b60405180910390a15050565b80600e60009054906101000a900473ffffffffffffffffffffffffffffffffffffffff1673ffffffffffffffffffffffffffffffffffffffff16633e251b2d33836040518363ffffffff1660e01b8152600401610cd29291906143fc565b60206040518083038186803b158015610cea57600080fd5b505afa158015610cfe573d6000803e3d6000fd5b505050506040513d601f19601f82011682018060405250810190610d2291906139dd565b15610f35576000600c60003373ffffffffffffffffffffffffffffffffffffffff1673ffffffffffffffffffffffffffffffffffffffff1681526020019081526020016000205411610da9576040517f08c379a0000000000000000000000000000000000000000000000000000000008152600401610da0906145d6565b60405180910390fd5b6000600c60003373ffffffffffffffffffffffffffffffffffffffff1673ffffffffffffffffffffffffffffffffffffffff1681526020019081526020016000205490506000600c60003373ffffffffffffffffffffffffffffffffffffffff1673ffffffffffffffffffffffffffffffffffffffff1681526020019081526020016000208190555060003373ffffffffffffffffffffffffffffffffffffffff1682604051610e58906142d0565b60006040518083038185875af1925050503d8060008114610e95576040519150601f19603f3d011682016040523d82523d6000602084013e610e9a565b606091505b5050905080610ede576040517f08c379a0000000000000000000000000000000000000000000000000000000008152600401610ed5906146d6565b60405180910390fd5b3373ffffffffffffffffffffffffffffffffffffffff167ff279e6a1f5e320cca91135676d9cb6e44ca8a08c0b88342bcdb1144f6511b5688584604051610f26929190614883565b60405180910390a25050610f70565b6040517f08c379a0000000000000000000000000000000000000000000000000000000008152600401610f6790614716565b60405180910390fd5b5050565b610f7c6123b2565b73ffffffffffffffffffffffffffffffffffffffff168573ffffffffffffffffffffffffffffffffffffffff161480610fc25750610fc185610fbc6123b2565b61202b565b5b611001576040517f08c379a0000000000000000000000000000000000000000000000000000000008152600401610ff890614676565b60405180910390fd5b61100e8585858585612457565b5050505050565b61101e82610b9f565b61102f8161102a6123b2565b6123ba565b611039838361276b565b505050565b6110466123b2565b73ffffffffffffffffffffffffffffffffffffffff168173ffffffffffffffffffffffffffffffffffffffff16146110b3576040517f08c379a00000000000000000000000000000000000000000000000000000000081526004016110aa906147f6565b60405180910390fd5b6110bd828261284c565b5050565b6000600f60009054906101000a900473ffffffffffffffffffffffffffffffffffffffff1673ffffffffffffffffffffffffffffffffffffffff166311590186846040518263ffffffff1660e01b815260040161111e9190614836565b60206040518083038186803b15801561113657600080fd5b505afa15801561114a573d6000803e3d6000fd5b505050506040513d601f19601f8201168201806040525081019061116e9190613afe565b116111ae576040517f08c379a00000000000000000000000000000000000000000000000000000000081526004016111a5906146b6565b60405180910390fd5b80600f60009054906101000a900473ffffffffffffffffffffffffffffffffffffffff1673ffffffffffffffffffffffffffffffffffffffff166311590186846040518263ffffffff1660e01b815260040161120a9190614836565b60206040518083038186803b15801561122257600080fd5b505afa158015611236573d6000803e3d6000fd5b505050506040513d601f19601f8201168201806040525081019061125a9190613afe565b1461129a576040517f08c379a000000000000000000000000000000000000000000000000000000000815260040161129190614756565b60405180910390fd5b60006112a63383610653565b116112e6576040517f08c379a00000000000000000000000000000000000000000000000000000000081526004016112dd90614816565b60405180910390fd5b60001515600d600083815260200190815260200160002060003373ffffffffffffffffffffffffffffffffffffffff1673ffffffffffffffffffffffffffffffffffffffff16815260200190815260200160002060009054906101000a900460ff1615151461138a576040517f08c379a000000000000000000000000000000000000000000000000000000000815260040161138190614636565b60405180910390fd5b6000600c6000600860009054906101000a900473ffffffffffffffffffffffffffffffffffffffff1673ffffffffffffffffffffffffffffffffffffffff1673ffffffffffffffffffffffffffffffffffffffff168152602001908152602001600020541161142e576040517f08c379a000000000000000000000000000000000000000000000000000000000815260040161142590614596565b60405180910390fd5b6000600c6000600860009054906101000a900473ffffffffffffffffffffffffffffffffffffffff1673ffffffffffffffffffffffffffffffffffffffff1673ffffffffffffffffffffffffffffffffffffffff16815260200190815260200160002054905060006001836114a39190614ac2565b90506000600682815481106114bb576114ba614d19565b5b9060005260206000200154905060006114d484836121f0565b90506001600d600087815260200190815260200160002060003373ffffffffffffffffffffffffffffffffffffffff1673ffffffffffffffffffffffffffffffffffffffff16815260200190815260200160002060006101000a81548160ff021916908315150217905550600061154b3387610653565b90506000818361155b9190614a68565b905080600c6000600860009054906101000a900473ffffffffffffffffffffffffffffffffffffffff1673ffffffffffffffffffffffffffffffffffffffff1673ffffffffffffffffffffffffffffffffffffffff16815260200190815260200160002060008282546115ce9190614ac2565b9250508190555081600686815481106115ea576115e9614d19565b5b9060005260206000200160008282546116039190614ac2565b9250508190555060003373ffffffffffffffffffffffffffffffffffffffff1682604051611630906142d0565b60006040518083038185875af1925050503d806000811461166d576040519150601f19603f3d011682016040523d82523d6000602084013e611672565b606091505b50509050806116b6576040517f08c379a00000000000000000000000000000000000000000000000000000000081526004016116ad906146d6565b60405180910390fd5b81883373ffffffffffffffffffffffffffffffffffffffff167f987d620f307ff6b94d58743cb7a7509f24071586a77759b77c2d4e29f75a2f9a60405160405180910390a4505050505050505050565b6060815183511461174c576040517f08c379a000000000000000000000000000000000000000000000000000000000815260040161174390614796565b60405180910390fd5b6000835167ffffffffffffffff81111561176957611768614d48565b5b6040519080825280602002602001820160405280156117975781602001602082028036833780820191505090505b50905060005b8451811015611814576117e48582815181106117bc576117bb614d19565b5b60200260200101518583815181106117d7576117d6614d19565b5b6020026020010151610653565b8282815181106117f7576117f6614d19565b5b6020026020010181815250508061180d90614c43565b905061179d565b508091505092915050565b6004818154811061182f57600080fd5b906000526020600020016000915090505481565b84600e60009054906101000a900473ffffffffffffffffffffffffffffffffffffffff1673ffffffffffffffffffffffffffffffffffffffff16633e251b2d33836040518363ffffffff1660e01b81526004016118a19291906143fc565b60206040518083038186803b1580156118b957600080fd5b505afa1580156118cd573d6000803e3d6000fd5b505050506040513d601f19601f820116820180604052508101906118f191906139dd565b15611c36576000806000600e60009054906101000a900473ffffffffffffffffffffffffffffffffffffffff1673ffffffffffffffffffffffffffffffffffffffff1663634b9a11338b6040518363ffffffff1660e01b81526004016119589291906143fc565b60e06040518083038186803b15801561197057600080fd5b505afa158015611984573d6000803e3d6000fd5b505050506040513d601f19601f820116820180604052508101906119a89190613b2b565b5095509550955050505060001515600b60003373ffffffffffffffffffffffffffffffffffffffff1673ffffffffffffffffffffffffffffffffffffffff168152602001908152602001600020600083815260200190815260200160002060009054906101000a900460ff16151514611a56576040517f08c379a0000000000000000000000000000000000000000000000000000000008152600401611a4d90614736565b60405180910390fd5b6004899080600181540180825580915050600190039060005260206000200160009091909190915055600582908060018154018082558091505060019003906000526020600020016000909190919091505560066000908060018154018082558091505060019003906000526020600020016000909190919091505560078390806001815401808255809150506001900390600052602060002001600090919091909150558585600960008c81526020019081526020016000209190611b1d92919061339b565b5033600a60008b815260200190815260200160002060006101000a81548173ffffffffffffffffffffffffffffffffffffffff021916908373ffffffffffffffffffffffffffffffffffffffff1602179055506001600b60003373ffffffffffffffffffffffffffffffffffffffff1673ffffffffffffffffffffffffffffffffffffffff168152602001908152602001600020600083815260200190815260200160002060006101000a81548160ff0219169083151502179055508787604051611be9929190614295565b6040518091039020838a7fba1e3fa517248c5d7f7ba1cae5c4c05e1d188fe43b6767e986acb6d1e6fbd2bf858a8a604051611c2693929190614851565b60405180910390a4505050611c71565b6040517f08c379a0000000000000000000000000000000000000000000000000000000008152600401611c6890614716565b60405180910390fd5b505050505050565b60068181548110611c8957600080fd5b906000526020600020016000915090505481565b600860009054906101000a900473ffffffffffffffffffffffffffffffffffffffff1681565b60006003600084815260200190815260200160002060000160008373ffffffffffffffffffffffffffffffffffffffff1673ffffffffffffffffffffffffffffffffffffffff16815260200190815260200160002060009054906101000a900460ff16905092915050565b6000801b81565b8173ffffffffffffffffffffffffffffffffffffffff16611d546123b2565b73ffffffffffffffffffffffffffffffffffffffff161415611dab576040517f08c379a0000000000000000000000000000000000000000000000000000000008152600401611da290614776565b60405180910390fd5b8060016000611db86123b2565b73ffffffffffffffffffffffffffffffffffffffff1673ffffffffffffffffffffffffffffffffffffffff16815260200190815260200160002060008473ffffffffffffffffffffffffffffffffffffffff1673ffffffffffffffffffffffffffffffffffffffff16815260200190815260200160002060006101000a81548160ff0219169083151502179055508173ffffffffffffffffffffffffffffffffffffffff16611e656123b2565b73ffffffffffffffffffffffffffffffffffffffff167f17307eab39ab6107e8899845ad3d59bd9653f200f220920489ca2b5937696c3183604051611eaa919061447e565b60405180910390a35050565b611ebf82610b9f565b611ed081611ecb6123b2565b6123ba565b611eda838361284c565b505050565b600080600073ffffffffffffffffffffffffffffffffffffffff16600a600085815260200190815260200160002060009054906101000a900473ffffffffffffffffffffffffffffffffffffffff1673ffffffffffffffffffffffffffffffffffffffff161415611f85576040517f08c379a0000000000000000000000000000000000000000000000000000000008152600401611f7c906145f6565b60405180910390fd5b6000600184611f949190614ac2565b905060068181548110611faa57611fa9614d19565b5b906000526020600020015460058281548110611fc957611fc8614d19565b5b9060005260206000200154611fde9190614ac2565b925060078181548110611ff457611ff3614d19565b5b9060005260206000200154915050915091565b6007818154811061201757600080fd5b906000526020600020016000915090505481565b6000600160008473ffffffffffffffffffffffffffffffffffffffff1673ffffffffffffffffffffffffffffffffffffffff16815260200190815260200160002060008373ffffffffffffffffffffffffffffffffffffffff1673ffffffffffffffffffffffffffffffffffffffff16815260200190815260200160002060009054906101000a900460ff16905092915050565b6120c76123b2565b73ffffffffffffffffffffffffffffffffffffffff168573ffffffffffffffffffffffffffffffffffffffff16148061210d575061210c856121076123b2565b61202b565b5b61214c576040517f08c379a0000000000000000000000000000000000000000000000000000000008152600401612143906145b6565b60405180910390fd5b612159858585858561292e565b5050505050565b60007f7965db0b000000000000000000000000000000000000000000000000000000007bffffffffffffffffffffffffffffffffffffffffffffffffffffffff1916827bffffffffffffffffffffffffffffffffffffffffffffffffffffffff191614806121d357506121d282612bb0565b5b9050919050565b600081836121e891906149e1565b905092915050565b600081836121fe9190614a37565b905092915050565b600081836122149190614ac2565b905092915050565b600073ffffffffffffffffffffffffffffffffffffffff168473ffffffffffffffffffffffffffffffffffffffff16141561228c576040517f08c379a0000000000000000000000000000000000000000000000000000000008152600401612283906147d6565b60405180910390fd5b60006122966123b2565b90506122b7816000876122a888612c92565b6122b188612c92565b87612d0c565b8260008086815260200190815260200160002060008773ffffffffffffffffffffffffffffffffffffffff1673ffffffffffffffffffffffffffffffffffffffff168152602001908152602001600020600082825461231691906149e1565b925050819055508473ffffffffffffffffffffffffffffffffffffffff16600073ffffffffffffffffffffffffffffffffffffffff168273ffffffffffffffffffffffffffffffffffffffff167fc3d58168c5ae7397731d063d5bbf3d657854427343f4c083240f7aacaa2d0f628787604051612394929190614883565b60405180910390a46123ab81600087878787612d14565b5050505050565b600033905090565b6123c48282611cc3565b612453576123e98173ffffffffffffffffffffffffffffffffffffffff166014612efb565b6123f78360001c6020612efb565b6040516020016124089291906142e5565b6040516020818303038152906040526040517f08c379a000000000000000000000000000000000000000000000000000000000815260040161244a91906144b4565b60405180910390fd5b5050565b815183511461249b576040517f08c379a0000000000000000000000000000000000000000000000000000000008152600401612492906147b6565b60405180910390fd5b600073ffffffffffffffffffffffffffffffffffffffff168473ffffffffffffffffffffffffffffffffffffffff16141561250b576040517f08c379a000000000000000000000000000000000000000000000000000000000815260040161250290614656565b60405180910390fd5b60006125156123b2565b9050612525818787878787612d0c565b60005b84518110156126d657600085828151811061254657612545614d19565b5b60200260200101519050600085838151811061256557612564614d19565b5b60200260200101519050600080600084815260200190815260200160002060008b73ffffffffffffffffffffffffffffffffffffffff1673ffffffffffffffffffffffffffffffffffffffff16815260200190815260200160002054905081811015612606576040517f08c379a00000000000000000000000000000000000000000000000000000000081526004016125fd90614696565b60405180910390fd5b81810360008085815260200190815260200160002060008c73ffffffffffffffffffffffffffffffffffffffff1673ffffffffffffffffffffffffffffffffffffffff168152602001908152602001600020819055508160008085815260200190815260200160002060008b73ffffffffffffffffffffffffffffffffffffffff1673ffffffffffffffffffffffffffffffffffffffff16815260200190815260200160002060008282546126bb91906149e1565b92505081905550505050806126cf90614c43565b9050612528565b508473ffffffffffffffffffffffffffffffffffffffff168673ffffffffffffffffffffffffffffffffffffffff168273ffffffffffffffffffffffffffffffffffffffff167f4a39dc06d4c0dbc64b70af90fd698a233a518aa5d07e595d983b8c0526c8f7fb878760405161274d929190614447565b60405180910390a4612763818787878787613137565b505050505050565b6127758282611cc3565b6128485760016003600084815260200190815260200160002060000160008373ffffffffffffffffffffffffffffffffffffffff1673ffffffffffffffffffffffffffffffffffffffff16815260200190815260200160002060006101000a81548160ff0219169083151502179055506127ed6123b2565b73ffffffffffffffffffffffffffffffffffffffff168173ffffffffffffffffffffffffffffffffffffffff16837f2f8788117e7eff1d82e926ec794901d17c78024a50270940304540a733656f0d60405160405180910390a45b5050565b6128568282611cc3565b1561292a5760006003600084815260200190815260200160002060000160008373ffffffffffffffffffffffffffffffffffffffff1673ffffffffffffffffffffffffffffffffffffffff16815260200190815260200160002060006101000a81548160ff0219169083151502179055506128cf6123b2565b73ffffffffffffffffffffffffffffffffffffffff168173ffffffffffffffffffffffffffffffffffffffff16837ff6391f5c32d9c69d2a47ea670b442974b53935d1edc7fd64eb21e047a839171b60405160405180910390a45b5050565b600073ffffffffffffffffffffffffffffffffffffffff168473ffffffffffffffffffffffffffffffffffffffff16141561299e576040517f08c379a000000000000000000000000000000000000000000000000000000000815260040161299590614656565b60405180910390fd5b60006129a86123b2565b90506129c88187876129b988612c92565b6129c288612c92565b87612d0c565b600080600086815260200190815260200160002060008873ffffffffffffffffffffffffffffffffffffffff1673ffffffffffffffffffffffffffffffffffffffff16815260200190815260200160002054905083811015612a5f576040517f08c379a0000000000000000000000000000000000000000000000000000000008152600401612a5690614696565b60405180910390fd5b83810360008087815260200190815260200160002060008973ffffffffffffffffffffffffffffffffffffffff1673ffffffffffffffffffffffffffffffffffffffff168152602001908152602001600020819055508360008087815260200190815260200160002060008873ffffffffffffffffffffffffffffffffffffffff1673ffffffffffffffffffffffffffffffffffffffff1681526020019081526020016000206000828254612b1491906149e1565b925050819055508573ffffffffffffffffffffffffffffffffffffffff168773ffffffffffffffffffffffffffffffffffffffff168373ffffffffffffffffffffffffffffffffffffffff167fc3d58168c5ae7397731d063d5bbf3d657854427343f4c083240f7aacaa2d0f628888604051612b91929190614883565b60405180910390a4612ba7828888888888612d14565b50505050505050565b60007fd9b67a26000000000000000000000000000000000000000000000000000000007bffffffffffffffffffffffffffffffffffffffffffffffffffffffff1916827bffffffffffffffffffffffffffffffffffffffffffffffffffffffff19161480612c7b57507f0e89341c000000000000000000000000000000000000000000000000000000007bffffffffffffffffffffffffffffffffffffffffffffffffffffffff1916827bffffffffffffffffffffffffffffffffffffffffffffffffffffffff1916145b80612c8b5750612c8a8261331e565b5b9050919050565b60606000600167ffffffffffffffff811115612cb157612cb0614d48565b5b604051908082528060200260200182016040528015612cdf5781602001602082028036833780820191505090505b5090508281600081518110612cf757612cf6614d19565b5b60200260200101818152505080915050919050565b505050505050565b612d338473ffffffffffffffffffffffffffffffffffffffff16613388565b15612ef3578373ffffffffffffffffffffffffffffffffffffffff1663f23a6e6187878686866040518663ffffffff1660e01b8152600401612d799594939291906143a2565b602060405180830381600087803b158015612d9357600080fd5b505af1925050508015612dc457506040513d601f19601f82011682018060405250810190612dc19190613aa4565b60015b612e6a57612dd0614d77565b806308c379a01415612e2d5750612de5615552565b80612df05750612e2f565b806040517f08c379a0000000000000000000000000000000000000000000000000000000008152600401612e2491906144b4565b60405180910390fd5b505b6040517f08c379a0000000000000000000000000000000000000000000000000000000008152600401612e61906144d6565b60405180910390fd5b63f23a6e6160e01b7bffffffffffffffffffffffffffffffffffffffffffffffffffffffff1916817bffffffffffffffffffffffffffffffffffffffffffffffffffffffff191614612ef1576040517f08c379a0000000000000000000000000000000000000000000000000000000008152600401612ee890614516565b60405180910390fd5b505b505050505050565b606060006002836002612f0e9190614a68565b612f1891906149e1565b67ffffffffffffffff811115612f3157612f30614d48565b5b6040519080825280601f01601f191660200182016040528015612f635781602001600182028036833780820191505090505b5090507f300000000000000000000000000000000000000000000000000000000000000081600081518110612f9b57612f9a614d19565b5b60200101907effffffffffffffffffffffffffffffffffffffffffffffffffffffffffffff1916908160001a9053507f780000000000000000000000000000000000000000000000000000000000000081600181518110612fff57612ffe614d19565b5b60200101907effffffffffffffffffffffffffffffffffffffffffffffffffffffffffffff1916908160001a9053506000600184600261303f9190614a68565b61304991906149e1565b90505b60018111156130e9577f3031323334353637383961626364656600000000000000000000000000000000600f86166010811061308b5761308a614d19565b5b1a60f81b8282815181106130a2576130a1614d19565b5b60200101907effffffffffffffffffffffffffffffffffffffffffffffffffffffffffffff1916908160001a905350600485901c9450806130e290614bb6565b905061304c565b506000841461312d576040517f08c379a0000000000000000000000000000000000000000000000000000000008152600401613124906144f6565b60405180910390fd5b8091505092915050565b6131568473ffffffffffffffffffffffffffffffffffffffff16613388565b15613316578373ffffffffffffffffffffffffffffffffffffffff1663bc197c8187878686866040518663ffffffff1660e01b815260040161319c95949392919061433a565b602060405180830381600087803b1580156131b657600080fd5b505af19250505080156131e757506040513d601f19601f820116820180604052508101906131e49190613aa4565b60015b61328d576131f3614d77565b806308c379a014156132505750613208615552565b806132135750613252565b806040517f08c379a000000000000000000000000000000000000000000000000000000000815260040161324791906144b4565b60405180910390fd5b505b6040517f08c379a0000000000000000000000000000000000000000000000000000000008152600401613284906144d6565b60405180910390fd5b63bc197c8160e01b7bffffffffffffffffffffffffffffffffffffffffffffffffffffffff1916817bffffffffffffffffffffffffffffffffffffffffffffffffffffffff191614613314576040517f08c379a000000000000000000000000000000000000000000000000000000000815260040161330b90614516565b60405180910390fd5b505b505050505050565b60007f01ffc9a7000000000000000000000000000000000000000000000000000000007bffffffffffffffffffffffffffffffffffffffffffffffffffffffff1916827bffffffffffffffffffffffffffffffffffffffffffffffffffffffff1916149050919050565b600080823b905060008111915050919050565b8280546133a790614be0565b90600052602060002090601f0160209004810192826133c95760008555613410565b82601f106133e257803560ff1916838001178555613410565b82800160010185558215613410579182015b8281111561340f5782358255916020019190600101906133f4565b5b50905061341d9190613421565b5090565b5b8082111561343a576000816000905550600101613422565b5090565b600061345161344c846148d1565b6148ac565b9050808382526020820190508285602086028201111561347457613473614da3565b5b60005b858110156134a4578161348a8882613560565b845260208401935060208301925050600181019050613477565b5050509392505050565b60006134c16134bc846148fd565b6148ac565b905080838252602082019050828560208602820111156134e4576134e3614da3565b5b60005b8581101561351457816134fa88826136e8565b8452602084019350602083019250506001810190506134e7565b5050509392505050565b600061353161352c84614929565b6148ac565b90508281526020810184848401111561354d5761354c614da8565b5b613558848285614b74565b509392505050565b60008135905061356f816155e8565b92915050565b600081519050613584816155e8565b92915050565b600082601f83011261359f5761359e614d9e565b5b81356135af84826020860161343e565b91505092915050565b600082601f8301126135cd576135cc614d9e565b5b81356135dd8482602086016134ae565b91505092915050565b6000813590506135f5816155ff565b92915050565b60008151905061360a816155ff565b92915050565b60008135905061361f81615616565b92915050565b6000813590506136348161562d565b92915050565b6000815190506136498161562d565b92915050565b600082601f83011261366457613663614d9e565b5b813561367484826020860161351e565b91505092915050565b60008151905061368c81615644565b92915050565b60008083601f8401126136a8576136a7614d9e565b5b8235905067ffffffffffffffff8111156136c5576136c4614d99565b5b6020830191508360018202830111156136e1576136e0614da3565b5b9250929050565b6000813590506136f781615654565b92915050565b60008151905061370c81615654565b92915050565b60006020828403121561372857613727614db2565b5b600061373684828501613560565b91505092915050565b6000806040838503121561375657613755614db2565b5b600061376485828601613560565b925050602061377585828601613560565b9150509250929050565b600080600080600060a0868803121561379b5761379a614db2565b5b60006137a988828901613560565b95505060206137ba88828901613560565b945050604086013567ffffffffffffffff8111156137db576137da614dad565b5b6137e7888289016135b8565b935050606086013567ffffffffffffffff81111561380857613807614dad565b5b613814888289016135b8565b925050608086013567ffffffffffffffff81111561383557613834614dad565b5b6138418882890161364f565b9150509295509295909350565b600080600080600060a0868803121561386a57613869614db2565b5b600061387888828901613560565b955050602061388988828901613560565b945050604061389a888289016136e8565b93505060606138ab888289016136e8565b925050608086013567ffffffffffffffff8111156138cc576138cb614dad565b5b6138d88882890161364f565b9150509295509295909350565b600080604083850312156138fc576138fb614db2565b5b600061390a85828601613560565b925050602061391b858286016135e6565b9150509250929050565b6000806040838503121561393c5761393b614db2565b5b600061394a85828601613560565b925050602061395b858286016136e8565b9150509250929050565b6000806040838503121561397c5761397b614db2565b5b600083013567ffffffffffffffff81111561399a57613999614dad565b5b6139a68582860161358a565b925050602083013567ffffffffffffffff8111156139c7576139c6614dad565b5b6139d3858286016135b8565b9150509250929050565b6000602082840312156139f3576139f2614db2565b5b6000613a01848285016135fb565b91505092915050565b600060208284031215613a2057613a1f614db2565b5b6000613a2e84828501613610565b91505092915050565b60008060408385031215613a4e57613a4d614db2565b5b6000613a5c85828601613610565b9250506020613a6d85828601613560565b9150509250929050565b600060208284031215613a8d57613a8c614db2565b5b6000613a9b84828501613625565b91505092915050565b600060208284031215613aba57613ab9614db2565b5b6000613ac88482850161363a565b91505092915050565b600060208284031215613ae757613ae6614db2565b5b6000613af5848285016136e8565b91505092915050565b600060208284031215613b1457613b13614db2565b5b6000613b22848285016136fd565b91505092915050565b600080600080600080600060e0888a031215613b4a57613b49614db2565b5b6000613b588a828b016136fd565b9750506020613b698a828b01613575565b9650506040613b7a8a828b016136fd565b9550506060613b8b8a828b016136fd565b9450506080613b9c8a828b016136fd565b93505060a0613bad8a828b016136fd565b92505060c0613bbe8a828b0161367d565b91505092959891949750929550565b600080600080600060608688031215613be957613be8614db2565b5b6000613bf7888289016136e8565b955050602086013567ffffffffffffffff811115613c1857613c17614dad565b5b613c2488828901613692565b9450945050604086013567ffffffffffffffff811115613c4757613c46614dad565b5b613c5388828901613692565b92509250509295509295909350565b60008060408385031215613c7957613c78614db2565b5b6000613c87858286016136e8565b9250506020613c98858286016136e8565b9150509250929050565b6000613cae8383614277565b60208301905092915050565b613cc381614af6565b82525050565b6000613cd48261496a565b613cde8185614998565b9350613ce98361495a565b8060005b83811015613d1a578151613d018882613ca2565b9750613d0c8361498b565b925050600181019050613ced565b5085935050505092915050565b613d3081614b08565b82525050565b613d3f81614b14565b82525050565b6000613d5082614975565b613d5a81856149a9565b9350613d6a818560208601614b83565b613d7381614db7565b840191505092915050565b6000613d8a83856149c5565b9350613d97838584614b74565b613da083614db7565b840190509392505050565b6000613db783856149d6565b9350613dc4838584614b74565b82840190509392505050565b6000613ddb82614980565b613de581856149c5565b9350613df5818560208601614b83565b613dfe81614db7565b840191505092915050565b6000613e1482614980565b613e1e81856149d6565b9350613e2e818560208601614b83565b80840191505092915050565b6000613e476034836149c5565b9150613e5282614dd5565b604082019050919050565b6000613e6a6020836149c5565b9150613e7582614e24565b602082019050919050565b6000613e8d6028836149c5565b9150613e9882614e4d565b604082019050919050565b6000613eb06030836149c5565b9150613ebb82614e9c565b604082019050919050565b6000613ed36011836149c5565b9150613ede82614eeb565b602082019050919050565b6000613ef6602b836149c5565b9150613f0182614f14565b604082019050919050565b6000613f196010836149c5565b9150613f2482614f63565b602082019050919050565b6000613f3c6029836149c5565b9150613f4782614f8c565b604082019050919050565b6000613f5f6012836149c5565b9150613f6a82614fdb565b602082019050919050565b6000613f82600f836149c5565b9150613f8d82615004565b602082019050919050565b6000613fa56010836149c5565b9150613fb08261502d565b602082019050919050565b6000613fc86023836149c5565b9150613fd382615056565b604082019050919050565b6000613feb6025836149c5565b9150613ff6826150a5565b604082019050919050565b600061400e6032836149c5565b9150614019826150f4565b604082019050919050565b6000614031602a836149c5565b915061403c82615143565b604082019050919050565b6000614054601e836149c5565b915061405f82615192565b602082019050919050565b60006140776022836149d6565b9150614082826151bb565b602282019050919050565b600061409a6000836149ba565b91506140a58261520a565b600082019050919050565b60006140bd6010836149c5565b91506140c88261520d565b602082019050919050565b60006140e06015836149c5565b91506140eb82615236565b602082019050919050565b60006141036025836149c5565b915061410e8261525f565b604082019050919050565b60006141266017836149d6565b9150614131826152ae565b601782019050919050565b60006141496023836149c5565b9150614154826152d7565b604082019050919050565b600061416c601e836149c5565b915061417782615326565b602082019050919050565b600061418f6029836149c5565b915061419a8261534f565b604082019050919050565b60006141b26029836149c5565b91506141bd8261539e565b604082019050919050565b60006141d56028836149c5565b91506141e0826153ed565b604082019050919050565b60006141f86021836149c5565b91506142038261543c565b604082019050919050565b600061421b6011836149d6565b91506142268261548b565b601182019050919050565b600061423e602f836149c5565b9150614249826154b4565b604082019050919050565b6000614261602b836149c5565b915061426c82615503565b604082019050919050565b61428081614b6a565b82525050565b61428f81614b6a565b82525050565b60006142a2828486613dab565b91508190509392505050565b60006142b98261406a565b91506142c58284613e09565b915081905092915050565b60006142db8261408d565b9150819050919050565b60006142f082614119565b91506142fc8285613e09565b91506143078261420e565b91506143138284613e09565b91508190509392505050565b60006020820190506143346000830184613cba565b92915050565b600060a08201905061434f6000830188613cba565b61435c6020830187613cba565b818103604083015261436e8186613cc9565b905081810360608301526143828185613cc9565b905081810360808301526143968184613d45565b90509695505050505050565b600060a0820190506143b76000830188613cba565b6143c46020830187613cba565b6143d16040830186614286565b6143de6060830185614286565b81810360808301526143f08184613d45565b90509695505050505050565b60006040820190506144116000830185613cba565b61441e6020830184614286565b9392505050565b6000602082019050818103600083015261443f8184613cc9565b905092915050565b600060408201905081810360008301526144618185613cc9565b905081810360208301526144758184613cc9565b90509392505050565b60006020820190506144936000830184613d27565b92915050565b60006020820190506144ae6000830184613d36565b92915050565b600060208201905081810360008301526144ce8184613dd0565b905092915050565b600060208201905081810360008301526144ef81613e3a565b9050919050565b6000602082019050818103600083015261450f81613e5d565b9050919050565b6000602082019050818103600083015261452f81613e80565b9050919050565b6000602082019050818103600083015261454f81613ea3565b9050919050565b6000602082019050818103600083015261456f81613ec6565b9050919050565b6000602082019050818103600083015261458f81613ee9565b9050919050565b600060208201905081810360008301526145af81613f0c565b9050919050565b600060208201905081810360008301526145cf81613f2f565b9050919050565b600060208201905081810360008301526145ef81613f52565b9050919050565b6000602082019050818103600083015261460f81613f75565b9050919050565b6000602082019050818103600083015261462f81613f98565b9050919050565b6000602082019050818103600083015261464f81613fbb565b9050919050565b6000602082019050818103600083015261466f81613fde565b9050919050565b6000602082019050818103600083015261468f81614001565b9050919050565b600060208201905081810360008301526146af81614024565b9050919050565b600060208201905081810360008301526146cf81614047565b9050919050565b600060208201905081810360008301526146ef816140b0565b9050919050565b6000602082019050818103600083015261470f816140d3565b9050919050565b6000602082019050818103600083015261472f816140f6565b9050919050565b6000602082019050818103600083015261474f8161413c565b9050919050565b6000602082019050818103600083015261476f8161415f565b9050919050565b6000602082019050818103600083015261478f81614182565b9050919050565b600060208201905081810360008301526147af816141a5565b9050919050565b600060208201905081810360008301526147cf816141c8565b9050919050565b600060208201905081810360008301526147ef816141eb565b9050919050565b6000602082019050818103600083015261480f81614231565b9050919050565b6000602082019050818103600083015261482f81614254565b9050919050565b600060208201905061484b6000830184614286565b92915050565b60006040820190506148666000830186614286565b8181036020830152614879818486613d7e565b9050949350505050565b60006040820190506148986000830185614286565b6148a56020830184614286565b9392505050565b60006148b66148c7565b90506148c28282614c12565b919050565b6000604051905090565b600067ffffffffffffffff8211156148ec576148eb614d48565b5b602082029050602081019050919050565b600067ffffffffffffffff82111561491857614917614d48565b5b602082029050602081019050919050565b600067ffffffffffffffff82111561494457614943614d48565b5b61494d82614db7565b9050602081019050919050565b6000819050602082019050919050565b600081519050919050565b600081519050919050565b600081519050919050565b6000602082019050919050565b600082825260208201905092915050565b600082825260208201905092915050565b600081905092915050565b600082825260208201905092915050565b600081905092915050565b60006149ec82614b6a565b91506149f783614b6a565b9250827fffffffffffffffffffffffffffffffffffffffffffffffffffffffffffffffff03821115614a2c57614a2b614c8c565b5b828201905092915050565b6000614a4282614b6a565b9150614a4d83614b6a565b925082614a5d57614a5c614cbb565b5b828204905092915050565b6000614a7382614b6a565b9150614a7e83614b6a565b9250817fffffffffffffffffffffffffffffffffffffffffffffffffffffffffffffffff0483118215151615614ab757614ab6614c8c565b5b828202905092915050565b6000614acd82614b6a565b9150614ad883614b6a565b925082821015614aeb57614aea614c8c565b5b828203905092915050565b6000614b0182614b4a565b9050919050565b60008115159050919050565b6000819050919050565b60007fffffffff0000000000000000000000000000000000000000000000000000000082169050919050565b600073ffffffffffffffffffffffffffffffffffffffff82169050919050565b6000819050919050565b82818337600083830152505050565b60005b83811015614ba1578082015181840152602081019050614b86565b83811115614bb0576000848401525b50505050565b6000614bc182614b6a565b91506000821415614bd557614bd4614c8c565b5b600182039050919050565b60006002820490506001821680614bf857607f821691505b60208210811415614c0c57614c0b614cea565b5b50919050565b614c1b82614db7565b810181811067ffffffffffffffff82111715614c3a57614c39614d48565b5b80604052505050565b6000614c4e82614b6a565b91507fffffffffffffffffffffffffffffffffffffffffffffffffffffffffffffffff821415614c8157614c80614c8c565b5b600182019050919050565b7f4e487b7100000000000000000000000000000000000000000000000000000000600052601160045260246000fd5b7f4e487b7100000000000000000000000000000000000000000000000000000000600052601260045260246000fd5b7f4e487b7100000000000000000000000000000000000000000000000000000000600052602260045260246000fd5b7f4e487b7100000000000000000000000000000000000000000000000000000000600052603260045260246000fd5b7f4e487b7100000000000000000000000000000000000000000000000000000000600052604160045260246000fd5b600060033d1115614d965760046000803e614d93600051614dc8565b90505b90565b600080fd5b600080fd5b600080fd5b600080fd5b600080fd5b600080fd5b6000601f19601f8301169050919050565b60008160e01c9050919050565b7f455243313135353a207472616e7366657220746f206e6f6e204552433131353560008201527f526563656976657220696d706c656d656e746572000000000000000000000000602082015250565b7f537472696e67733a20686578206c656e67746820696e73756666696369656e74600082015250565b7f455243313135353a204552433131353552656365697665722072656a6563746560008201527f6420746f6b656e73000000000000000000000000000000000000000000000000602082015250565b7f596f752063616e206f6e6c79206d696e74207570746f203235204e465473206660008201527f6f72206120676976656e20746f6b656e00000000000000000000000000000000602082015250565b7f4e6f7420656e6f75676820737570706c79000000000000000000000000000000600082015250565b7f455243313135353a2062616c616e636520717565727920666f7220746865207a60008201527f65726f2061646472657373000000000000000000000000000000000000000000602082015250565b7f4e6f7420656e6f7567682066756e647300000000000000000000000000000000600082015250565b7f455243313135353a2063616c6c6572206973206e6f74206f776e6572206e6f7260008201527f20617070726f7665640000000000000000000000000000000000000000000000602082015250565b7f496e73756666696369656e742046756e64730000000000000000000000000000600082015250565b7f496e76616c696420546f6b656e49640000000000000000000000000000000000600082015250565b7f496e76616c696420546f6b656e20496400000000000000000000000000000000600082015250565b7f596f75206861766520616c726561647920636c61696d656420796f757220736860008201527f6172650000000000000000000000000000000000000000000000000000000000602082015250565b7f455243313135353a207472616e7366657220746f20746865207a65726f20616460008201527f6472657373000000000000000000000000000000000000000000000000000000602082015250565b7f455243313135353a207472616e736665722063616c6c6572206973206e6f742060008201527f6f776e6572206e6f7220617070726f7665640000000000000000000000000000602082015250565b7f455243313135353a20696e73756666696369656e742062616c616e636520666f60008201527f72207472616e7366657200000000000000000000000000000000000000000000602082015250565b7f4d617463682077696e6e6572206e6f74206465636c61726564207965742e0000600082015250565b7f68747470733a2f2f676174657761792e70696e6174612e636c6f75642f69706660008201527f732f000000000000000000000000000000000000000000000000000000000000602082015250565b50565b7f5472616e73666572206661696c65642e00000000000000000000000000000000600082015250565b7f4e6f7420656e6f7567682065746865722073656e740000000000000000000000600082015250565b7f4e6f7420417574686f72697a656420746f20706572666f726d2074686973206160008201527f6374696f6e000000000000000000000000000000000000000000000000000000602082015250565b7f416363657373436f6e74726f6c3a206163636f756e7420000000000000000000600082015250565b7f546f6b656e20616c726561647920616464656420666f7220746869732073656160008201527f736f6e0000000000000000000000000000000000000000000000000000000000602082015250565b7f536f7272792c207468697320746f6b656e20646964206e6f742077696e2e0000600082015250565b7f455243313135353a2073657474696e6720617070726f76616c2073746174757360008201527f20666f722073656c660000000000000000000000000000000000000000000000602082015250565b7f455243313135353a206163636f756e747320616e6420696473206c656e67746860008201527f206d69736d617463680000000000000000000000000000000000000000000000602082015250565b7f455243313135353a2069647320616e6420616d6f756e7473206c656e6774682060008201527f6d69736d61746368000000000000000000000000000000000000000000000000602082015250565b7f455243313135353a206d696e7420746f20746865207a65726f2061646472657360008201527f7300000000000000000000000000000000000000000000000000000000000000602082015250565b7f206973206d697373696e6720726f6c6520000000000000000000000000000000600082015250565b7f416363657373436f6e74726f6c3a2063616e206f6e6c792072656e6f756e636560008201527f20726f6c657320666f722073656c660000000000000000000000000000000000602082015250565b7f596f7520617265206e6f7420746865206f776e6572206f662077696e6e69672060008201527f7465616d20746f6b656e2e000000000000000000000000000000000000000000602082015250565b600060443d1015615562576155e5565b61556a6148c7565b60043d036004823e80513d602482011167ffffffffffffffff821117156155925750506155e5565b808201805167ffffffffffffffff8111156155b057505050506155e5565b80602083010160043d0385018111156155cd5750505050506155e5565b6155dc82602001850186614c12565b82955050505050505b90565b6155f181614af6565b81146155fc57600080fd5b50565b61560881614b08565b811461561357600080fd5b50565b61561f81614b14565b811461562a57600080fd5b50565b61563681614b1e565b811461564157600080fd5b50565b6003811061565157600080fd5b50565b61565d81614b6a565b811461566857600080fd5b5056fea26469706673582212200dc752818f715b3c0fb30a1120ce3ba4f6cb5cd599641aff1b4fc060ede8f21364736f6c6343000807003368747470733a2f2f676174657761792e70696e6174612e636c6f75642f697066732f7b4349447d",
  "linkReferences": {},
  "deployedLinkReferences": {}
}