{
  "_format": "hh-sol-artifact-1",
  "contractName": "CricNFTTeamAgreement",
  "sourceName": "contracts/CricNFTTeamAgreement.sol",
  "abi": [
    {
      "inputs": [],
      "stateMutability": "nonpayable",
      "type": "constructor"
    },
    {
      "anonymous": false,
      "inputs": [
        {
          "indexed": true,
          "internalType": "address",
          "name": "",
          "type": "address"
        }
      ],
      "name": "AddressAdded",
      "type": "event"
    },
    {
      "anonymous": false,
      "inputs": [
        {
          "indexed": true,
          "internalType": "address",
          "name": "teamAddress",
          "type": "address"
        },
        {
          "indexed": false,
          "internalType": "uint256",
          "name": "seasonId",
          "type": "uint256"
        }
      ],
      "name": "AgreementEnded",
      "type": "event"
    },
    {
      "anonymous": false,
      "inputs": [
        {
          "indexed": true,
          "internalType": "address",
          "name": "teamAddress",
          "type": "address"
        },
        {
          "indexed": true,
          "internalType": "uint256",
          "name": "tokenId",
          "type": "uint256"
        },
        {
          "indexed": false,
          "internalType": "uint256",
          "name": "teamId",
          "type": "uint256"
        },
        {
          "indexed": false,
          "internalType": "uint256",
          "name": "price",
          "type": "uint256"
        },
        {
          "indexed": false,
          "internalType": "uint256",
          "name": "totalNumOfTokenstoMint",
          "type": "uint256"
        }
      ],
      "name": "NewAgreementCreated",
      "type": "event"
    },
    {
      "anonymous": false,
      "inputs": [
        {
          "indexed": true,
          "internalType": "address",
          "name": "_newowner",
          "type": "address"
        }
      ],
      "name": "NewOwner",
      "type": "event"
    },
    {
      "anonymous": false,
      "inputs": [
        {
          "indexed": true,
          "internalType": "bytes32",
          "name": "role",
          "type": "bytes32"
        },
        {
          "indexed": true,
          "internalType": "bytes32",
          "name": "previousAdminRole",
          "type": "bytes32"
        },
        {
          "indexed": true,
          "internalType": "bytes32",
          "name": "newAdminRole",
          "type": "bytes32"
        }
      ],
      "name": "RoleAdminChanged",
      "type": "event"
    },
    {
      "anonymous": false,
      "inputs": [
        {
          "indexed": true,
          "internalType": "bytes32",
          "name": "role",
          "type": "bytes32"
        },
        {
          "indexed": true,
          "internalType": "address",
          "name": "account",
          "type": "address"
        },
        {
          "indexed": true,
          "internalType": "address",
          "name": "sender",
          "type": "address"
        }
      ],
      "name": "RoleGranted",
      "type": "event"
    },
    {
      "anonymous": false,
      "inputs": [
        {
          "indexed": true,
          "internalType": "bytes32",
          "name": "role",
          "type": "bytes32"
        },
        {
          "indexed": true,
          "internalType": "address",
          "name": "account",
          "type": "address"
        },
        {
          "indexed": true,
          "internalType": "address",
          "name": "sender",
          "type": "address"
        }
      ],
      "name": "RoleRevoked",
      "type": "event"
    },
    {
      "inputs": [],
      "name": "DEFAULT_ADMIN_ROLE",
      "outputs": [
        {
          "internalType": "bytes32",
          "name": "",
          "type": "bytes32"
        }
      ],
      "stateMutability": "view",
      "type": "function"
    },
    {
      "inputs": [],
      "name": "agreementId",
      "outputs": [
        {
          "internalType": "uint256",
          "name": "",
          "type": "uint256"
        }
      ],
      "stateMutability": "view",
      "type": "function"
    },
    {
      "inputs": [
        {
          "internalType": "address",
          "name": "_newowner",
          "type": "address"
        }
      ],
      "name": "changeOwnership",
      "outputs": [],
      "stateMutability": "nonpayable",
      "type": "function"
    },
    {
      "inputs": [],
      "name": "counter",
      "outputs": [
        {
          "internalType": "uint256",
          "name": "",
          "type": "uint256"
        }
      ],
      "stateMutability": "view",
      "type": "function"
    },
    {
      "inputs": [
        {
          "internalType": "uint256",
          "name": "_teamId",
          "type": "uint256"
        },
        {
          "internalType": "uint256",
          "name": "_price",
          "type": "uint256"
        },
        {
          "internalType": "uint256",
          "name": "_totalNumOfTokenstoMint",
          "type": "uint256"
        },
        {
          "internalType": "uint256",
          "name": "_seasonId",
          "type": "uint256"
        }
      ],
      "name": "createTeamAgreement",
      "outputs": [],
      "stateMutability": "nonpayable",
      "type": "function"
    },
    {
      "inputs": [
        {
          "internalType": "address",
          "name": "_teamAddress",
          "type": "address"
        },
        {
          "internalType": "uint256",
          "name": "_tokenId",
          "type": "uint256"
        }
      ],
      "name": "endAgreement",
      "outputs": [],
      "stateMutability": "nonpayable",
      "type": "function"
    },
    {
      "inputs": [
        {
          "internalType": "address",
          "name": "_teamAddress",
          "type": "address"
        },
        {
          "internalType": "uint256",
          "name": "_tokenId",
          "type": "uint256"
        }
      ],
      "name": "getAgreementInfo",
      "outputs": [
        {
          "internalType": "uint256",
          "name": "id",
          "type": "uint256"
        },
        {
          "internalType": "address",
          "name": "publishedAddress",
          "type": "address"
        },
        {
          "internalType": "uint256",
          "name": "teamId",
          "type": "uint256"
        },
        {
          "internalType": "uint256",
          "name": "price",
          "type": "uint256"
        },
        {
          "internalType": "uint256",
          "name": "totalNumOfTokenstoMint",
          "type": "uint256"
        },
        {
          "internalType": "uint256",
          "name": "seasonId",
          "type": "uint256"
        },
        {
          "internalType": "enum CricNFTTeamAgreement.AgreementStatus",
          "name": "status",
          "type": "uint8"
        }
      ],
      "stateMutability": "view",
      "type": "function"
    },
    {
      "inputs": [
        {
          "internalType": "bytes32",
          "name": "role",
          "type": "bytes32"
        }
      ],
      "name": "getRoleAdmin",
      "outputs": [
        {
          "internalType": "bytes32",
          "name": "",
          "type": "bytes32"
        }
      ],
      "stateMutability": "view",
      "type": "function"
    },
    {
      "inputs": [
        {
          "internalType": "address",
          "name": "_teamAddress",
          "type": "address"
        }
      ],
      "name": "getTeamAddressInfo",
      "outputs": [
        {
          "internalType": "bool",
          "name": "",
          "type": "bool"
        }
      ],
      "stateMutability": "view",
      "type": "function"
    },
    {
      "inputs": [
        {
          "internalType": "uint256",
          "name": "_tokenId",
          "type": "uint256"
        }
      ],
      "name": "getTeamIdInfo",
      "outputs": [
        {
          "internalType": "uint256",
          "name": "teamId",
          "type": "uint256"
        }
      ],
      "stateMutability": "view",
      "type": "function"
    },
    {
      "inputs": [
        {
          "internalType": "bytes32",
          "name": "role",
          "type": "bytes32"
        },
        {
          "internalType": "address",
          "name": "account",
          "type": "address"
        }
      ],
      "name": "grantRole",
      "outputs": [],
      "stateMutability": "nonpayable",
      "type": "function"
    },
    {
      "inputs": [
        {
          "internalType": "bytes32",
          "name": "role",
          "type": "bytes32"
        },
        {
          "internalType": "address",
          "name": "account",
          "type": "address"
        }
      ],
      "name": "hasRole",
      "outputs": [
        {
          "internalType": "bool",
          "name": "",
          "type": "bool"
        }
      ],
      "stateMutability": "view",
      "type": "function"
    },
    {
      "inputs": [
        {
          "internalType": "address",
          "name": "_user",
          "type": "address"
        },
        {
          "internalType": "uint256",
          "name": "_tokenId",
          "type": "uint256"
        }
      ],
      "name": "isAuthorizedOwner",
      "outputs": [
        {
          "internalType": "bool",
          "name": "",
          "type": "bool"
        }
      ],
      "stateMutability": "view",
      "type": "function"
    },
    {
      "inputs": [],
      "name": "owner",
      "outputs": [
        {
          "internalType": "address",
          "name": "",
          "type": "address"
        }
      ],
      "stateMutability": "view",
      "type": "function"
    },
    {
      "inputs": [
        {
          "internalType": "uint256",
          "name": "",
          "type": "uint256"
        }
      ],
      "name": "publishedTeamAddresses",
      "outputs": [
        {
          "internalType": "address",
          "name": "",
          "type": "address"
        }
      ],
      "stateMutability": "view",
      "type": "function"
    },
    {
      "inputs": [
        {
          "internalType": "bytes32",
          "name": "role",
          "type": "bytes32"
        },
        {
          "internalType": "address",
          "name": "account",
          "type": "address"
        }
      ],
      "name": "renounceRole",
      "outputs": [],
      "stateMutability": "nonpayable",
      "type": "function"
    },
    {
      "inputs": [
        {
          "internalType": "bytes32",
          "name": "role",
          "type": "bytes32"
        },
        {
          "internalType": "address",
          "name": "account",
          "type": "address"
        }
      ],
      "name": "revokeRole",
      "outputs": [],
      "stateMutability": "nonpayable",
      "type": "function"
    },
    {
      "inputs": [
        {
          "internalType": "address",
          "name": "_teamAddress",
          "type": "address"
        }
      ],
      "name": "setPublishedAddress",
      "outputs": [],
      "stateMutability": "nonpayable",
      "type": "function"
    },
    {
      "inputs": [
        {
          "internalType": "bytes4",
          "name": "interfaceId",
          "type": "bytes4"
        }
      ],
      "name": "supportsInterface",
      "outputs": [
        {
          "internalType": "bool",
          "name": "",
          "type": "bool"
        }
      ],
      "stateMutability": "view",
      "type": "function"
    },
    {
      "inputs": [
        {
          "internalType": "address",
          "name": "",
          "type": "address"
        }
      ],
      "name": "teamAddresses",
      "outputs": [
        {
          "internalType": "bool",
          "name": "",
          "type": "bool"
        }
      ],
      "stateMutability": "view",
      "type": "function"
    },
    {
      "inputs": [
        {
          "internalType": "uint256",
          "name": "",
          "type": "uint256"
        },
        {
          "internalType": "uint256",
          "name": "",
          "type": "uint256"
        }
      ],
      "name": "teamsInContract",
      "outputs": [
        {
          "internalType": "bool",
          "name": "",
          "type": "bool"
        }
      ],
      "stateMutability": "view",
      "type": "function"
    }
  ],
  "bytecode": "0x60806040523480156200001157600080fd5b5033600160006101000a81548173ffffffffffffffffffffffffffffffffffffffff021916908373ffffffffffffffffffffffffffffffffffffffff160217905550620000686000801b33620000a060201b60201c565b6200009a7f5445414d5f4f574e45525f524f4c45000000000000000000000000000000000033620000a060201b60201c565b62000219565b620000b28282620000b660201b60201c565b5050565b620000c88282620001a760201b60201c565b620001a357600160008084815260200190815260200160002060000160008373ffffffffffffffffffffffffffffffffffffffff1673ffffffffffffffffffffffffffffffffffffffff16815260200190815260200160002060006101000a81548160ff021916908315150217905550620001486200021160201b60201c565b73ffffffffffffffffffffffffffffffffffffffff168173ffffffffffffffffffffffffffffffffffffffff16837f2f8788117e7eff1d82e926ec794901d17c78024a50270940304540a733656f0d60405160405180910390a45b5050565b600080600084815260200190815260200160002060000160008373ffffffffffffffffffffffffffffffffffffffff1673ffffffffffffffffffffffffffffffffffffffff16815260200190815260200160002060009054906101000a900460ff16905092915050565b600033905090565b61261e80620002296000396000f3fe608060405234801561001057600080fd5b50600436106101375760003560e01c806366f588f1116100b8578063a898ba9f1161007c578063a898ba9f1461038c578063ac62b426146103bc578063c37fb009146103d8578063c587e15314610408578063d547741f14610424578063e27394911461044057610137565b806366f588f1146102d45780636f42c901146102f05780638da5cb5b1461032057806391d148541461033e578063a217fddf1461036e57610137565b80633e251b2d116100ff5780633e251b2d146101f0578063423ca71d146102205780634f2306bc1461025057806361bc221a14610280578063634b9a111461029e57610137565b806301ffc9a71461013c578063248a9ca31461016c5780632af4c31e1461019c5780632f2ff15d146101b857806336568abe146101d4575b600080fd5b61015660048036038101906101519190611a1a565b61045e565b6040516101639190611da6565b60405180910390f35b610186600480360381019061018191906119ad565b6104d8565b6040516101939190611dc1565b60405180910390f35b6101b660048036038101906101b19190611940565b6104f7565b005b6101d260048036038101906101cd91906119da565b610594565b005b6101ee60048036038101906101e991906119da565b6105bd565b005b61020a6004803603810190610205919061196d565b610640565b6040516102179190611da6565b60405180910390f35b61023a60048036038101906102359190611940565b6106af565b6040516102479190611da6565b60405180910390f35b61026a60048036038101906102659190611a47565b610705565b6040516102779190611d8b565b60405180910390f35b610288610744565b6040516102959190611f1e565b60405180910390f35b6102b860048036038101906102b3919061196d565b61074a565b6040516102cb9796959493929190611f39565b60405180910390f35b6102ee60048036038101906102e9919061196d565b6109e8565b005b61030a60048036038101906103059190611940565b610b4a565b6040516103179190611da6565b60405180910390f35b610328610b6a565b6040516103359190611d8b565b60405180910390f35b610358600480360381019061035391906119da565b610b90565b6040516103659190611da6565b60405180910390f35b610376610bfa565b6040516103839190611dc1565b60405180910390f35b6103a660048036038101906103a19190611a74565b610c01565b6040516103b39190611da6565b60405180910390f35b6103d660048036038101906103d19190611940565b610c30565b005b6103f260048036038101906103ed9190611a47565b610e04565b6040516103ff9190611f1e565b60405180910390f35b610422600480360381019061041d9190611ab4565b610e24565b005b61043e600480360381019061043991906119da565b6113b1565b005b6104486113da565b6040516104559190611f1e565b60405180910390f35b60007f7965db0b000000000000000000000000000000000000000000000000000000007bffffffffffffffffffffffffffffffffffffffffffffffffffffffff1916827bffffffffffffffffffffffffffffffffffffffffffffffffffffffff191614806104d157506104d0826113e0565b5b9050919050565b6000806000838152602001908152602001600020600101549050919050565b6000801b61050c8161050761144a565b611452565b81600160006101000a81548173ffffffffffffffffffffffffffffffffffffffff021916908373ffffffffffffffffffffffffffffffffffffffff1602179055508173ffffffffffffffffffffffffffffffffffffffff167f3edd90e7770f06fafde38004653b33870066c33bfc923ff6102acd601f85dfbc60405160405180910390a25050565b61059d826104d8565b6105ae816105a961144a565b611452565b6105b883836114ef565b505050565b6105c561144a565b73ffffffffffffffffffffffffffffffffffffffff168173ffffffffffffffffffffffffffffffffffffffff1614610632576040517f08c379a000000000000000000000000000000000000000000000000000000000815260040161062990611efe565b60405180910390fd5b61063c82826115cf565b5050565b60008273ffffffffffffffffffffffffffffffffffffffff166009600084815260200190815260200160002060010160009054906101000a900473ffffffffffffffffffffffffffffffffffffffff1673ffffffffffffffffffffffffffffffffffffffff1614905092915050565b6000600660008373ffffffffffffffffffffffffffffffffffffffff1673ffffffffffffffffffffffffffffffffffffffff16815260200190815260200160002060009054906101000a900460ff169050919050565b6004818154811061071557600080fd5b906000526020600020016000915054906101000a900473ffffffffffffffffffffffffffffffffffffffff1681565b60035481565b6000806000806000806000600860008a73ffffffffffffffffffffffffffffffffffffffff1673ffffffffffffffffffffffffffffffffffffffff1681526020019081526020016000206000898152602001908152602001600020600001549650600860008a73ffffffffffffffffffffffffffffffffffffffff1673ffffffffffffffffffffffffffffffffffffffff168152602001908152602001600020600089815260200190815260200160002060010160009054906101000a900473ffffffffffffffffffffffffffffffffffffffff169550600860008a73ffffffffffffffffffffffffffffffffffffffff1673ffffffffffffffffffffffffffffffffffffffff1681526020019081526020016000206000898152602001908152602001600020600201549450600860008a73ffffffffffffffffffffffffffffffffffffffff1673ffffffffffffffffffffffffffffffffffffffff1681526020019081526020016000206000898152602001908152602001600020600301549350600860008a73ffffffffffffffffffffffffffffffffffffffff1673ffffffffffffffffffffffffffffffffffffffff1681526020019081526020016000206000898152602001908152602001600020600401549250600860008a73ffffffffffffffffffffffffffffffffffffffff1673ffffffffffffffffffffffffffffffffffffffff1681526020019081526020016000206000898152602001908152602001600020600501549150600860008a73ffffffffffffffffffffffffffffffffffffffff1673ffffffffffffffffffffffffffffffffffffffff168152602001908152602001600020600089815260200190815260200160002060060160009054906101000a900460ff16905092959891949750929550565b6000801b6109fd816109f861144a565b611452565b6000600860008573ffffffffffffffffffffffffffffffffffffffff1673ffffffffffffffffffffffffffffffffffffffff1681526020019081526020016000206000848152602001908152602001600020905060016002811115610a6557610a6461222e565b5b8160060160009054906101000a900460ff166002811115610a8957610a8861222e565b5b14610ac9576040517f08c379a0000000000000000000000000000000000000000000000000000000008152600401610ac090611e7e565b60405180910390fd5b60028160060160006101000a81548160ff02191690836002811115610af157610af061222e565b5b02179055508373ffffffffffffffffffffffffffffffffffffffff167f5cb564d559d13bae98cc5bdccaaf58bc11fd485b3991895e00bb21ac5cbaa5a884604051610b3c9190611f1e565b60405180910390a250505050565b60066020528060005260406000206000915054906101000a900460ff1681565b600160009054906101000a900473ffffffffffffffffffffffffffffffffffffffff1681565b600080600084815260200190815260200160002060000160008373ffffffffffffffffffffffffffffffffffffffff1673ffffffffffffffffffffffffffffffffffffffff16815260200190815260200160002060009054906101000a900460ff16905092915050565b6000801b81565b60076020528160005260406000206020528060005260406000206000915091509054906101000a900460ff1681565b6000801b610c4581610c4061144a565b611452565b60001515600660008473ffffffffffffffffffffffffffffffffffffffff1673ffffffffffffffffffffffffffffffffffffffff16815260200190815260200160002060009054906101000a900460ff16151514610cd8576040517f08c379a0000000000000000000000000000000000000000000000000000000008152600401610ccf90611e5e565b60405180910390fd5b6004829080600181540180825580915050600190039060005260206000200160009091909190916101000a81548173ffffffffffffffffffffffffffffffffffffffff021916908373ffffffffffffffffffffffffffffffffffffffff1602179055506001600660008473ffffffffffffffffffffffffffffffffffffffff1673ffffffffffffffffffffffffffffffffffffffff16815260200190815260200160002060006101000a81548160ff021916908315150217905550610dbd7f5445414d5f4f574e45525f524f4c45000000000000000000000000000000000083610594565b8173ffffffffffffffffffffffffffffffffffffffff167fa226db3f664042183ee0281230bba26cbf7b5057e50aee7f25a175ff45ce4d7f60405160405180910390a25050565b600060096000838152602001908152602001600020600201549050919050565b7f5445414d5f4f574e45525f524f4c450000000000000000000000000000000000610e5681610e5161144a565b611452565b60011515600660003373ffffffffffffffffffffffffffffffffffffffff1673ffffffffffffffffffffffffffffffffffffffff16815260200190815260200160002060009054906101000a900460ff16151514610ee9576040517f08c379a0000000000000000000000000000000000000000000000000000000008152600401610ee090611e3e565b60405180910390fd5b6000151560076000878152602001908152602001600020600084815260200190815260200160002060009054906101000a900460ff16151514610f61576040517f08c379a0000000000000000000000000000000000000000000000000000000008152600401610f5890611e9e565b60405180910390fd5b60001515600a60003373ffffffffffffffffffffffffffffffffffffffff1673ffffffffffffffffffffffffffffffffffffffff168152602001908152602001600020600084815260200190815260200160002060009054906101000a900460ff16151514611005576040517f08c379a0000000000000000000000000000000000000000000000000000000008152600401610ffc90611ede565b60405180910390fd5b60008311611048576040517f08c379a000000000000000000000000000000000000000000000000000000000815260040161103f90611e1e565b60405180910390fd5b6000841161108b576040517f08c379a000000000000000000000000000000000000000000000000000000000815260040161108290611ebe565b60405180910390fd5b60026000815461109a906121b6565b919050819055506000600860003373ffffffffffffffffffffffffffffffffffffffff1673ffffffffffffffffffffffffffffffffffffffff1681526020019081526020016000206000600254815260200190815260200160002090506002548160000181905550338160010160006101000a81548173ffffffffffffffffffffffffffffffffffffffff021916908373ffffffffffffffffffffffffffffffffffffffff16021790555085816002018190555084816003018190555083816004018190555060018160060160006101000a81548160ff021916908360028111156111885761118761222e565b5b02179055508281600501819055506005869080600181540180825580915050600190039060005260206000200160009091909190915055600160076000888152602001908152602001600020600085815260200190815260200160002060006101000a81548160ff02191690831515021790555080600960006002548152602001908152602001600020600082015481600001556001820160009054906101000a900473ffffffffffffffffffffffffffffffffffffffff168160010160006101000a81548173ffffffffffffffffffffffffffffffffffffffff021916908373ffffffffffffffffffffffffffffffffffffffff160217905550600282015481600201556003820154816003015560048201548160040155600582015481600501556006820160009054906101000a900460ff168160060160006101000a81548160ff021916908360028111156112e3576112e261222e565b5b02179055509050506001600a60003373ffffffffffffffffffffffffffffffffffffffff1673ffffffffffffffffffffffffffffffffffffffff168152602001908152602001600020600085815260200190815260200160002060006101000a81548160ff0219169083151502179055506002543373ffffffffffffffffffffffffffffffffffffffff167fa148c04829f73a8220b0aac6a5f5f60efbe573163287c299b889c9db7cc3d7398888886040516113a193929190611fa8565b60405180910390a3505050505050565b6113ba826104d8565b6113cb816113c661144a565b611452565b6113d583836115cf565b505050565b60025481565b60007f01ffc9a7000000000000000000000000000000000000000000000000000000007bffffffffffffffffffffffffffffffffffffffffffffffffffffffff1916827bffffffffffffffffffffffffffffffffffffffffffffffffffffffff1916149050919050565b600033905090565b61145c8282610b90565b6114eb576114818173ffffffffffffffffffffffffffffffffffffffff1660146116b0565b61148f8360001c60206116b0565b6040516020016114a0929190611d51565b6040516020818303038152906040526040517f08c379a00000000000000000000000000000000000000000000000000000000081526004016114e29190611ddc565b60405180910390fd5b5050565b6114f98282610b90565b6115cb57600160008084815260200190815260200160002060000160008373ffffffffffffffffffffffffffffffffffffffff1673ffffffffffffffffffffffffffffffffffffffff16815260200190815260200160002060006101000a81548160ff02191690831515021790555061157061144a565b73ffffffffffffffffffffffffffffffffffffffff168173ffffffffffffffffffffffffffffffffffffffff16837f2f8788117e7eff1d82e926ec794901d17c78024a50270940304540a733656f0d60405160405180910390a45b5050565b6115d98282610b90565b156116ac57600080600084815260200190815260200160002060000160008373ffffffffffffffffffffffffffffffffffffffff1673ffffffffffffffffffffffffffffffffffffffff16815260200190815260200160002060006101000a81548160ff02191690831515021790555061165161144a565b73ffffffffffffffffffffffffffffffffffffffff168173ffffffffffffffffffffffffffffffffffffffff16837ff6391f5c32d9c69d2a47ea670b442974b53935d1edc7fd64eb21e047a839171b60405160405180910390a45b5050565b6060600060028360026116c3919061205c565b6116cd9190612006565b67ffffffffffffffff8111156116e6576116e561228c565b5b6040519080825280601f01601f1916602001820160405280156117185781602001600182028036833780820191505090505b5090507f3000000000000000000000000000000000000000000000000000000000000000816000815181106117505761174f61225d565b5b60200101907effffffffffffffffffffffffffffffffffffffffffffffffffffffffffffff1916908160001a9053507f7800000000000000000000000000000000000000000000000000000000000000816001815181106117b4576117b361225d565b5b60200101907effffffffffffffffffffffffffffffffffffffffffffffffffffffffffffff1916908160001a905350600060018460026117f4919061205c565b6117fe9190612006565b90505b600181111561189e577f3031323334353637383961626364656600000000000000000000000000000000600f8616601081106118405761183f61225d565b5b1a60f81b8282815181106118575761185661225d565b5b60200101907effffffffffffffffffffffffffffffffffffffffffffffffffffffffffffff1916908160001a905350600485901c9450806118979061218c565b9050611801565b50600084146118e2576040517f08c379a00000000000000000000000000000000000000000000000000000000081526004016118d990611dfe565b60405180910390fd5b8091505092915050565b6000813590506118fb8161258c565b92915050565b600081359050611910816125a3565b92915050565b600081359050611925816125ba565b92915050565b60008135905061193a816125d1565b92915050565b600060208284031215611956576119556122bb565b5b6000611964848285016118ec565b91505092915050565b60008060408385031215611984576119836122bb565b5b6000611992858286016118ec565b92505060206119a38582860161192b565b9150509250929050565b6000602082840312156119c3576119c26122bb565b5b60006119d184828501611901565b91505092915050565b600080604083850312156119f1576119f06122bb565b5b60006119ff85828601611901565b9250506020611a10858286016118ec565b9150509250929050565b600060208284031215611a3057611a2f6122bb565b5b6000611a3e84828501611916565b91505092915050565b600060208284031215611a5d57611a5c6122bb565b5b6000611a6b8482850161192b565b91505092915050565b60008060408385031215611a8b57611a8a6122bb565b5b6000611a998582860161192b565b9250506020611aaa8582860161192b565b9150509250929050565b60008060008060808587031215611ace57611acd6122bb565b5b6000611adc8782880161192b565b9450506020611aed8782880161192b565b9350506040611afe8782880161192b565b9250506060611b0f8782880161192b565b91505092959194509250565b611b24816120b6565b82525050565b611b33816120c8565b82525050565b611b42816120d4565b82525050565b611b5181612147565b82525050565b6000611b6282611fdf565b611b6c8185611fea565b9350611b7c818560208601612159565b611b85816122c0565b840191505092915050565b6000611b9b82611fdf565b611ba58185611ffb565b9350611bb5818560208601612159565b80840191505092915050565b6000611bce602083611fea565b9150611bd9826122d1565b602082019050919050565b6000611bf1602983611fea565b9150611bfc826122fa565b604082019050919050565b6000611c14600e83611fea565b9150611c1f82612349565b602082019050919050565b6000611c37601683611fea565b9150611c4282612372565b602082019050919050565b6000611c5a602c83611fea565b9150611c658261239b565b604082019050919050565b6000611c7d602983611fea565b9150611c88826123ea565b604082019050919050565b6000611ca0602183611fea565b9150611cab82612439565b604082019050919050565b6000611cc3603583611fea565b9150611cce82612488565b604082019050919050565b6000611ce6601783611ffb565b9150611cf1826124d7565b601782019050919050565b6000611d09601183611ffb565b9150611d1482612500565b601182019050919050565b6000611d2c602f83611fea565b9150611d3782612529565b604082019050919050565b611d4b8161213d565b82525050565b6000611d5c82611cd9565b9150611d688285611b90565b9150611d7382611cfc565b9150611d7f8284611b90565b91508190509392505050565b6000602082019050611da06000830184611b1b565b92915050565b6000602082019050611dbb6000830184611b2a565b92915050565b6000602082019050611dd66000830184611b39565b92915050565b60006020820190508181036000830152611df68184611b57565b905092915050565b60006020820190508181036000830152611e1781611bc1565b9050919050565b60006020820190508181036000830152611e3781611be4565b9050919050565b60006020820190508181036000830152611e5781611c07565b9050919050565b60006020820190508181036000830152611e7781611c2a565b9050919050565b60006020820190508181036000830152611e9781611c4d565b9050919050565b60006020820190508181036000830152611eb781611c70565b9050919050565b60006020820190508181036000830152611ed781611c93565b9050919050565b60006020820190508181036000830152611ef781611cb6565b9050919050565b60006020820190508181036000830152611f1781611d1f565b9050919050565b6000602082019050611f336000830184611d42565b92915050565b600060e082019050611f4e600083018a611d42565b611f5b6020830189611b1b565b611f686040830188611d42565b611f756060830187611d42565b611f826080830186611d42565b611f8f60a0830185611d42565b611f9c60c0830184611b48565b98975050505050505050565b6000606082019050611fbd6000830186611d42565b611fca6020830185611d42565b611fd76040830184611d42565b949350505050565b600081519050919050565b600082825260208201905092915050565b600081905092915050565b60006120118261213d565b915061201c8361213d565b9250827fffffffffffffffffffffffffffffffffffffffffffffffffffffffffffffffff03821115612051576120506121ff565b5b828201905092915050565b60006120678261213d565b91506120728361213d565b9250817fffffffffffffffffffffffffffffffffffffffffffffffffffffffffffffffff04831182151516156120ab576120aa6121ff565b5b828202905092915050565b60006120c18261211d565b9050919050565b60008115159050919050565b6000819050919050565b60007fffffffff0000000000000000000000000000000000000000000000000000000082169050919050565b600081905061211882612578565b919050565b600073ffffffffffffffffffffffffffffffffffffffff82169050919050565b6000819050919050565b60006121528261210a565b9050919050565b60005b8381101561217757808201518184015260208101905061215c565b83811115612186576000848401525b50505050565b60006121978261213d565b915060008214156121ab576121aa6121ff565b5b600182039050919050565b60006121c18261213d565b91507fffffffffffffffffffffffffffffffffffffffffffffffffffffffffffffffff8214156121f4576121f36121ff565b5b600182019050919050565b7f4e487b7100000000000000000000000000000000000000000000000000000000600052601160045260246000fd5b7f4e487b7100000000000000000000000000000000000000000000000000000000600052602160045260246000fd5b7f4e487b7100000000000000000000000000000000000000000000000000000000600052603260045260246000fd5b7f4e487b7100000000000000000000000000000000000000000000000000000000600052604160045260246000fd5b600080fd5b6000601f19601f8301169050919050565b7f537472696e67733a20686578206c656e67746820696e73756666696369656e74600082015250565b7f41677265656d656e742063616e6e6f742062652063726561746564207769746860008201527f203020746f6b656e730000000000000000000000000000000000000000000000602082015250565b7f4e6f7420417574686f72697a6564000000000000000000000000000000000000600082015250565b7f4164647265737320616c72656164792065786973747300000000000000000000600082015250565b7f4f6e6c792061677265656d656e747320696e207365747570207374617475732060008201527f63616e20626520656e6465640000000000000000000000000000000000000000602082015250565b7f5465616d20616c726561647920696e2061677265656d656e7420666f7220746860008201527f697320736561736f6e0000000000000000000000000000000000000000000000602082015250565b7f507269636520666f72207465616d204e46542063616e6e6f74206265207a657260008201527f6f00000000000000000000000000000000000000000000000000000000000000602082015250565b7f4e6f7420417574686f72697a656420746f206372656174652061677265656d6560008201527f6e7420666f72206d756c7469706c65207465616d730000000000000000000000602082015250565b7f416363657373436f6e74726f6c3a206163636f756e7420000000000000000000600082015250565b7f206973206d697373696e6720726f6c6520000000000000000000000000000000600082015250565b7f416363657373436f6e74726f6c3a2063616e206f6e6c792072656e6f756e636560008201527f20726f6c657320666f722073656c660000000000000000000000000000000000602082015250565b600381106125895761258861222e565b5b50565b612595816120b6565b81146125a057600080fd5b50565b6125ac816120d4565b81146125b757600080fd5b50565b6125c3816120de565b81146125ce57600080fd5b50565b6125da8161213d565b81146125e557600080fd5b5056fea26469706673582212200ca2c423e666d79da57b83efe0a9976d14e8f779292a119202b96ff68edc524f64736f6c63430008070033",
  "linkReferences": {},
  "deployedLinkReferences": {}
}